:020000040800F2
:1000000008040020CD0A00083B0A00083D0A000849
:1000100000000000000000000000000000000000E0
:10002000000000000000000000000000410A00087D
:100030000000000000000000430A0008450A000814
:10004000AB0A0008B70A0008E90A0008EB0A000832
:10005000ED0A0008210A0008EF0A0008F10A00086A
:10006000F30A0008F50A0008F70A0008F90A000870
:10007000FB0A0008FD0A0008FF0A0008010B00083F
:10008000030B0008050B000800000000070B000828
:10009000090B00080B0B00080D0B00080F0B0008E4
:1000A000110B0008130B0008150B0008170B0008B4
:1000B000190B0008000000001B0B000800000000E6
:1000C000F0B502000B0052B2002A21D552B210073F
:1000D000000F0838800804214843764952B21407BB
:1000E000240F083CA40804256C43724D2C59FF25AD
:1000F0009607B60F08277E43B540AC439B01DBB2A1
:100100009207920F08256A43934023430B501CE04B
:1001100052B21000800804214843A5490858FF2125
:100120009407A40F08256C43A14088439901C9B2E4
:1001300093079B0F082463439940014352B2100078
:100140008008042250439A4A1150F0BD00B583B094
:100150000121A020000300F071F9C0208000009070
:1001600068460121417168460121017168460021FC
:10017000817169468F4800F0C7F9012000906846F8
:100180000221017168460221417168460221C17154
:1001900069469020C00500F0B7F907BD86480068A1
:1001A000401E85490860704700B50100481E0029BF
:1001B000FBD100BD00B583B000F024FA002100207F
:1001C00000F09AFA0120009068460021017168460B
:1001D00008214171684601218171684600F022FAC8
:1001E00007BD80B503210520FFF76AFF684605219A
:1001F000017068460021417068460121817068469F
:1002000000F0AAFA01BD80B5E0218903002000F0CA
:10021000DDF8012000F0E7F8192000F041F900288E
:10022000FAD0022000F0F2F800F0FBF80828FBD129
:1002300001218020400500F021F9012000F0C6FADC
:100240000121012000F00AF901BD80B501228021C1
:100250008900584800F0B8F95848FFF7A5FF8021F9
:100260008900544800F0AEF95448FFF79DFF012281
:10027000802189004F4800F0A7F95048FFF794FF0C
:10028000802189004B4800F09DF94C48FFF78CFF16
:10029000012280218900474800F096F94748FFF77E
:1002A00083FF80218900434800F08CF94348FFF721
:1002B0007BFF01BD1CED00E010B50024FFF746FFF9
:1002C000FFF7A1FFFFF776FFFFF78BFFFFF7BDFFFB
:1002D00011E03C48FFF768FF641C0122802189007F
:1002E000344800F071F9012000F093FA8021890070
:1002F000304800F067F901219020C00500F055F961
:100300000028F8D02E48FFF74FFF01219020C005AC
:1003100000F04BF9E4B2002C01D1012100E00021F2
:100320000200D207D20F0A42D3D101219020C0058A
:1003300000F03BF9E4B2012C01D1012100E00021E1
:100340000200D207D20F0A4218D01E48FFF72CFF36
:10035000641C012280214900164800F035F9194833
:10036000FFF722FF0121012000F061FAFFF74BFFA8
:10037000802149000F4800F025F9BCE71148FFF73C
:1003800013FF0122802189000A4800F01DF9012293
:1003900080214900074800F017F90B48FFF704FFD8
:1003A00001218020400000F024FA00F05EFAA2E76C
:1003B00000E400E0000800480000002080841E00E7
:1003C000400D030040420F0080969800184A1268C2
:1003D000184B1340164A1360154A12680143114323
:1003E00013480160704700B5C0B2002807D00F481D
:1003F00000688021490401430C48016005E00B4876
:1004000000680D4901400948016000BD0021084A0B
:10041000126811000322914308430100044801605F
:1004200070471E4801680C200840704700100240C9
:1004300004100240FFFFC2FFFFFFFFFE00B5C9B27C
:10044000002905D02A49096808432949086004E0C1
:100450002749096881432648016000BD00B5C9B23B
:10046000002905D02349096808432249086004E0AF
:100470002049096881431F48016000BD00B5C9B229
:10048000002905D01C49096808431B49086004E09D
:100490001949096881431848016000BD04100240F1
:1004A00010B50022002300210400E4B26409E4B284
:1004B0002200002A02D111490B680BE0012A02D167
:1004C0000A490B6806E0022A02D10D490B6801E0D7
:1004D0000C490B68C0B2C206D20ED340D80701D572
:1004E000012100E000210800C0B210BD2010024030
:1004F00014100240181002401C100240001002406C
:10050000241002403410024070B500220023002461
:1005100000252A0046E0012393400C681C409C42C1
:100520003FD10B79012B02D00B79022B19D18368B3
:100530000324150002267543AC40A34383608368FF
:100540004C79150002267543AC401C4384608388B7
:1005500001249440A343838083888C7994401C4376
:10056000848003680324150002267543AC40A3432E
:10057000036003680C79150002267543AC401C43E8
:100580000460C3680324150002267543AC40A343EE
:10059000C360C368CC79150002267543AC401C4388
:1005A000C460521C102AB6D370BD00B502000020F2
:1005B000128A89B21140002901D0012000E00020F8
:1005C000C0B200BD0185704700B5D2B2002A02D08A
:1005D00089B2816100E0018500BD38B401210022AB
:1005E0000368001D002B0BD00468001D0C4202D0D4
:1005F0004D466D1E64192260241D1B1FF0D0FAE7C2
:1006000032BC7047354836490160364800210160E8
:1006100035480021016035480021016034483549E2
:100620000160704700B500212C4A11008279002A30
:1006300035D02A4A126803689A43284B1A60294A1F
:10064000126803689A43274B1A60027989180A686E
:10065000036813430B602449096802689143224AE6
:1006600011602249096802689143204A116041796A
:1006700010290CD11C49096802680A431A490A600A
:100680001A49096800680843184908600DE01349D1
:10069000427989180A6800681043086005E0027909
:1006A00089180A68006882430A6000BD00B501002D
:1006B00000200022094B1B680B401A000C4B1B68E2
:1006C0001940002903D0002A01D0012000E00020B9
:1006D000C0B200BD06490860704700000004014038
:1006E0000000940F04040140080401400C04014080
:1006F00014040140FFFF6B0030B400220F238C076D
:10070000A40F04256C43A3401A00C9B20B009B1030
:10071000042463430F4CE3589343C9B20A00921078
:10072000042462430B4CA350C9B20A009210042364
:100730005A43084B9A58C0B28B079B0F042463435B
:1007400098401043C9B2891004225143014A5050C5
:1007500030BC70470800014010B500218278002AA3
:1007600026D00178891004225143154A5158FF229E
:1007700003789B079B0F082463439A4091430C0026
:1007800041788901C9B202789207920F08235A432F
:10079000914021430278921004235A43084B995008
:1007A00001210078C006C00E81400648016006E0C5
:1007B00001210078C006C00E81400348016010BDD1
:1007C00000E400E000E100E080E100E000B5C0B23C
:1007D000002807D032480068802149000143304892
:1007E000016005E02E4800682E4901402C48016058
:1007F00000BD00B5C9B2002905D02B4909680843DE
:100800002949086004E028490968814326480160B5
:1008100000BD00B52549096804229143234A1160AF
:10082000C0B2012801D130BF00E020BF00BD00B53B
:1008300000221B4B1B681A0003239A43104302003B
:1008400017480260194800680422024317480260F2
:10085000C9B2012901D130BF00E020BF13480068B0
:10086000042188431149086000BD0D480068042137
:1008700001430B4801600A4800680221014308480F
:1008800001600A480068042101430848016030BF44
:100890000648006804218843044908607047000046
:1008A00000700040FFFEFFFF0470004010ED00E00C
:1008B00080B54F480068012101434D4801604D4813
:1008C00000684D4901404B480160494800684B4968
:1008D0000140474801604648006849490140444892
:1008E0000160444800684749014042480160464869
:1008F00000680F218843444908604448006844491F
:100900000140424801604348006801218843414951
:10091000086041480021016000F001F801BDC0B548
:100920000020019000200090314800688021490299
:1009300001432F4801602E48006880218902084049
:1009400000900198401C01900098002804D1019863
:10095000A021C9008842EED125480068800302D555
:100960000120009001E000200090009801283DD176
:100970002A48006810210143284801602748006880
:1009800001210143254801601A481A49096801609C
:10099000184818490968016016480068194901405B
:1009A0001448016013480068882149030143114835
:1009B00001600F4800688021490401430C48016030
:1009C0000B4800688001FBD50A4800680321884372
:1009D0000849086007480068022101430548016092
:1009E000044800680C2101400829F9D103BD00002A
:1009F00000100240041002400CB8FFF8FFFFF6FEA2
:100A0000FFFFFBFFFFFFC0FF2C1002403010024031
:100A1000ACFEFFFF341002400810024000200240EC
:100A200080B50120FFF742FE002805D00120FFF726
:100A3000F0FE0120FFF74EFE01BD704700B5FEE756
:100A40007047704780B5FFF7A9FB01BD10B5074996
:100A500079441831064C7C44163404E0081D0A68B9
:100A6000891888470100A142F8D110BD0800000094
:100A70001400000067FBFFFF0400000000000020DE
:100A80000000000000F00BF8002801D0FFF7DEFFA7
:100A90000020C046C046FFF70FFC00F002F801201E
:100AA000704780B500F002F801BDFEE70746384602
:100AB00000F002F8FBE7FEE780B5C046C046024AF8
:100AC00011001820ABBEFBE726000200014880475A
:100AD00001480047B1080008DD0A0008C046C046CA
:100AE000C046C046FFF7CEFFFEE7FEE7FEE7FEE7A3
:100AF000FEE7FEE7FEE7FEE7FEE7FEE7FEE7FEE7CE
:100B0000FEE7FEE7FEE7FEE7FEE7FEE7FEE7FEE7BD
:0C0B1000FEE7FEE7FEE7FEE7FEE7FEE77B
:0400000508000ADD08
:00000001FF
